{
  "address": "0x5FbDB2315678afecb367f032d93F642f64180aa3",
  "abi": [
    {
      "inputs": [
        {
          "internalType": "contract ITerminalDirectory",
          "name": "_terminalDirectory",
          "type": "address"
        }
      ],
      "stateMutability": "nonpayable",
      "type": "constructor"
    },
    {
      "inputs": [],
      "name": "BeneficiaryIsZero",
      "type": "error"
    },
    {
      "inputs": [],
      "name": "NoRecipients",
      "type": "error"
    },
    {
      "inputs": [
        {
          "internalType": "uint256",
          "name": "prod1",
          "type": "uint256"
        },
        {
          "internalType": "uint256",
          "name": "denominator",
          "type": "uint256"
        }
      ],
      "name": "PRBMath__MulDivOverflow",
      "type": "error"
    },
    {
      "inputs": [],
      "name": "PercentExceeded",
      "type": "error"
    },
    {
      "inputs": [],
      "name": "PercentNot100",
      "type": "error"
    },
    {
      "inputs": [],
      "name": "RecipientPercentZero",
      "type": "error"
    },
    {
      "inputs": [],
      "name": "TerminalNotFound",
      "type": "error"
    },
    {
      "inputs": [],
      "name": "Unapproved",
      "type": "error"
    },
    {
      "inputs": [],
      "name": "WrongPrice",
      "type": "error"
    },
    {
      "anonymous": false,
      "inputs": [
        {
          "indexed": true,
          "internalType": "address",
          "name": "_from",
          "type": "address"
        },
        {
          "indexed": true,
          "internalType": "contract IERC721",
          "name": "_contract",
          "type": "address"
        },
        {
          "indexed": true,
          "internalType": "uint256",
          "name": "_tokenId",
          "type": "uint256"
        }
      ],
      "name": "Delisted",
      "type": "event"
    },
    {
      "anonymous": false,
      "inputs": [
        {
          "indexed": true,
          "internalType": "address",
          "name": "_from",
          "type": "address"
        },
        {
          "indexed": true,
          "internalType": "contract IERC721",
          "name": "_contract",
          "type": "address"
        },
        {
          "indexed": true,
          "internalType": "uint256",
          "name": "_tokenId",
          "type": "uint256"
        },
        {
          "components": [
            {
              "internalType": "bool",
              "name": "preferUnstaked",
              "type": "bool"
            },
            {
              "internalType": "uint16",
              "name": "percent",
              "type": "uint16"
            },
            {
              "internalType": "address payable",
              "name": "beneficiary",
              "type": "address"
            },
            {
              "internalType": "string",
              "name": "memo",
              "type": "string"
            },
            {
              "internalType": "uint256",
              "name": "projectId",
              "type": "uint256"
            }
          ],
          "indexed": false,
          "internalType": "struct SaleRecipient[]",
          "name": "_recipients",
          "type": "tuple[]"
        },
        {
          "indexed": false,
          "internalType": "uint256",
          "name": "_price",
          "type": "uint256"
        }
      ],
      "name": "Listed",
      "type": "event"
    },
    {
      "anonymous": false,
      "inputs": [
        {
          "indexed": false,
          "internalType": "address",
          "name": "_from",
          "type": "address"
        },
        {
          "indexed": true,
          "internalType": "address",
          "name": "_to",
          "type": "address"
        },
        {
          "indexed": true,
          "internalType": "contract IERC721",
          "name": "_contract",
          "type": "address"
        },
        {
          "indexed": true,
          "internalType": "uint256",
          "name": "_tokenId",
          "type": "uint256"
        },
        {
          "indexed": false,
          "internalType": "uint256",
          "name": "_price",
          "type": "uint256"
        }
      ],
      "name": "Purchased",
      "type": "event"
    },
    {
      "inputs": [
        {
          "internalType": "contract IERC721",
          "name": "_contract",
          "type": "address"
        },
        {
          "internalType": "uint256",
          "name": "_tokenId",
          "type": "uint256"
        }
      ],
      "name": "delist",
      "outputs": [],
      "stateMutability": "nonpayable",
      "type": "function"
    },
    {
      "inputs": [
        {
          "internalType": "contract IERC721",
          "name": "_contract",
          "type": "address"
        },
        {
          "internalType": "uint256",
          "name": "_tokenId",
          "type": "uint256"
        },
        {
          "internalType": "uint256",
          "name": "_price",
          "type": "uint256"
        },
        {
          "components": [
            {
              "internalType": "bool",
              "name": "preferUnstaked",
              "type": "bool"
            },
            {
              "internalType": "uint16",
              "name": "percent",
              "type": "uint16"
            },
            {
              "internalType": "address payable",
              "name": "beneficiary",
              "type": "address"
            },
            {
              "internalType": "string",
              "name": "memo",
              "type": "string"
            },
            {
              "internalType": "uint256",
              "name": "projectId",
              "type": "uint256"
            }
          ],
          "internalType": "struct SaleRecipient[]",
          "name": "_recipients",
          "type": "tuple[]"
        }
      ],
      "name": "list",
      "outputs": [],
      "stateMutability": "nonpayable",
      "type": "function"
    },
    {
      "inputs": [
        {
          "internalType": "address",
          "name": "",
          "type": "address"
        },
        {
          "internalType": "address",
          "name": "",
          "type": "address"
        },
        {
          "internalType": "uint256",
          "name": "",
          "type": "uint256"
        },
        {
          "internalType": "bytes",
          "name": "",
          "type": "bytes"
        }
      ],
      "name": "onERC721Received",
      "outputs": [
        {
          "internalType": "bytes4",
          "name": "",
          "type": "bytes4"
        }
      ],
      "stateMutability": "pure",
      "type": "function"
    },
    {
      "inputs": [
        {
          "internalType": "contract IERC721",
          "name": "",
          "type": "address"
        },
        {
          "internalType": "uint256",
          "name": "",
          "type": "uint256"
        }
      ],
      "name": "prices",
      "outputs": [
        {
          "internalType": "uint256",
          "name": "",
          "type": "uint256"
        }
      ],
      "stateMutability": "view",
      "type": "function"
    },
    {
      "inputs": [
        {
          "internalType": "contract IERC721",
          "name": "_contract",
          "type": "address"
        },
        {
          "internalType": "uint256",
          "name": "_tokenId",
          "type": "uint256"
        },
        {
          "internalType": "address",
          "name": "_owner",
          "type": "address"
        }
      ],
      "name": "purchase",
      "outputs": [],
      "stateMutability": "payable",
      "type": "function"
    },
    {
      "inputs": [
        {
          "internalType": "address",
          "name": "",
          "type": "address"
        },
        {
          "internalType": "contract IERC721",
          "name": "",
          "type": "address"
        },
        {
          "internalType": "uint256",
          "name": "",
          "type": "uint256"
        },
        {
          "internalType": "uint256",
          "name": "",
          "type": "uint256"
        }
      ],
      "name": "recipientsOf",
      "outputs": [
        {
          "internalType": "bool",
          "name": "preferUnstaked",
          "type": "bool"
        },
        {
          "internalType": "uint16",
          "name": "percent",
          "type": "uint16"
        },
        {
          "internalType": "address payable",
          "name": "beneficiary",
          "type": "address"
        },
        {
          "internalType": "string",
          "name": "memo",
          "type": "string"
        },
        {
          "internalType": "uint256",
          "name": "projectId",
          "type": "uint256"
        }
      ],
      "stateMutability": "view",
      "type": "function"
    },
    {
      "inputs": [],
      "name": "terminalDirectory",
      "outputs": [
        {
          "internalType": "contract ITerminalDirectory",
          "name": "",
          "type": "address"
        }
      ],
      "stateMutability": "view",
      "type": "function"
    }
  ],
  "transactionHash": "0xdaf7e7623a2bd17ee3de9fbe7c0522671da09b45558aed25bb0044beeaa19cc1",
  "args": [
    "0x9A5EbE744DF7B66E8Bdd41DB8d6C52073556eD93"
  ],
  "solcInputHash": "ad424816ebbe1bcb4e758337315e465a",
  "bytecode": "0x60a060405234801561001057600080fd5b50604051611feb380380611feb83398101604081905261002f91610049565b600160005560601b6001600160601b031916608052610079565b60006020828403121561005b57600080fd5b81516001600160a01b038116811461007257600080fd5b9392505050565b60805160601c611f4d61009e600039600081816101240152610cca0152611f4d6000f3fe6080604052600436106100705760003560e01c8063a917c9101161004e578063a917c9101461016b578063bbc492c01461019c578063e3784066146101e2578063f074258e146101f557600080fd5b8063150b7a02146100755780633dfedf07146100f05780636abcf8e314610112575b600080fd5b34801561008157600080fd5b506100ba61009036600461180d565b7f150b7a020000000000000000000000000000000000000000000000000000000095945050505050565b6040517fffffffff0000000000000000000000000000000000000000000000000000000090911681526020015b60405180910390f35b3480156100fc57600080fd5b5061011061010b36600461197d565b610215565b005b34801561011e57600080fd5b506101467f000000000000000000000000000000000000000000000000000000000000000081565b60405173ffffffffffffffffffffffffffffffffffffffff90911681526020016100e7565b34801561017757600080fd5b5061018b6101863660046118ac565b61089e565b6040516100e7959493929190611c73565b3480156101a857600080fd5b506101d46101b736600461190f565b600260209081526000928352604080842090915290825290205481565b6040519081526020016100e7565b6101106101f036600461193b565b6109b0565b34801561020157600080fd5b5061011061021036600461190f565b610ff6565b60026000541415610287576040517f08c379a000000000000000000000000000000000000000000000000000000000815260206004820152601f60248201527f5265656e7472616e637947756172643a207265656e7472616e742063616c6c0060448201526064015b60405180910390fd5b60026000556040517f081812fc00000000000000000000000000000000000000000000000000000000815260048101849052309073ffffffffffffffffffffffffffffffffffffffff86169063081812fc9060240160206040518083038186803b1580156102f457600080fd5b505afa158015610308573d6000803e3d6000fd5b505050506040513d601f19601f8201168201806040525081019061032c91906117f0565b73ffffffffffffffffffffffffffffffffffffffff161415801561049557506040517f6352211e0000000000000000000000000000000000000000000000000000000081526004810184905273ffffffffffffffffffffffffffffffffffffffff85169063e985e9c5908290636352211e9060240160206040518083038186803b1580156103b957600080fd5b505afa1580156103cd573d6000803e3d6000fd5b505050506040513d601f19601f820116820180604052508101906103f191906117f0565b6040517fffffffff0000000000000000000000000000000000000000000000000000000060e084901b16815273ffffffffffffffffffffffffffffffffffffffff909116600482015230602482015260440160206040518083038186803b15801561045b57600080fd5b505afa15801561046f573d6000803e3d6000fd5b505050506040513d601f19601f8201168201806040525081019061049391906118f2565b155b156104cc576040517f91a7df1a00000000000000000000000000000000000000000000000000000000815260040160405180910390fd5b6000815111610507576040517f91c0aaa200000000000000000000000000000000000000000000000000000000815260040160405180910390fd5b6000805b82518110156107e457600083828151811061052857610528611e89565b60200260200101516020015161ffff161161056f576040517f1e4b4aa200000000000000000000000000000000000000000000000000000000815260040160405180910390fd5b82818151811061058157610581611e89565b60200260200101516020015161ffff168261059c9190611d86565b91506127108211156105da576040517f71a7f2dd00000000000000000000000000000000000000000000000000000000815260040160405180910390fd5b8281815181106105ec576105ec611e89565b60200260200101516080015160001480156106505750600073ffffffffffffffffffffffffffffffffffffffff1683828151811061062c5761062c611e89565b60200260200101516040015173ffffffffffffffffffffffffffffffffffffffff16145b15610687576040517fc0f3343500000000000000000000000000000000000000000000000000000000815260040160405180910390fd5b33600090815260016020908152604080832073ffffffffffffffffffffffffffffffffffffffff8a1684528252808320888452909152902083518490839081106106d3576106d3611e89565b6020908102919091018101518254600181810185556000948552938390208251600390920201805483850151604085015173ffffffffffffffffffffffffffffffffffffffff166301000000027fffffffffffffffffff0000000000000000000000000000000000000000ffffff61ffff909216610100027fffffffffffffffffffffffffffffffffffffffffffffffffffffffffff0000ff951515959095167fffffffffffffffffffffffffffffffffffffffffffffffffffffffffff00000090931692909217939093179290921691909117815560608201518051929491936107c4939285019291019061160e565b5060808201518160020155505080806107dc90611df2565b91505061050b565b508061271014610820576040517fda07043d00000000000000000000000000000000000000000000000000000000815260040160405180910390fd5b73ffffffffffffffffffffffffffffffffffffffff85166000818152600260209081526040808320888452909152908190208590555185919033907fde226c796648f37059a7e7b7ccad8c5e6948b389ef43b6f963539f770653eaa59061088a9087908990611b9c565b60405180910390a450506001600055505050565b600160205283600052604060002060205282600052604060002060205281600052604060002081815481106108d257600080fd5b60009182526020909120600390910201805460018201805460ff83169750610100830461ffff169650630100000090920473ffffffffffffffffffffffffffffffffffffffff16945091925061092790611d9e565b80601f016020809104026020016040519081016040528092919081815260200182805461095390611d9e565b80156109a05780601f10610975576101008083540402835291602001916109a0565b820191906000526020600020905b81548152906001019060200180831161098357829003601f168201915b5050505050908060020154905085565b60026000541415610a1d576040517f08c379a000000000000000000000000000000000000000000000000000000000815260206004820152601f60248201527f5265656e7472616e637947756172643a207265656e7472616e742063616c6c00604482015260640161027e565b6002600081815573ffffffffffffffffffffffffffffffffffffffff851681526020918252604080822085835290925220543414610a87576040517ff7760f2500000000000000000000000000000000000000000000000000000000815260040160405180910390fd5b73ffffffffffffffffffffffffffffffffffffffff80821660009081526001602090815260408083209387168352928152828220858352815282822080548451818402810184019095528085529293929091849084015b82821015610bf15760008481526020908190206040805160a08101825260038602909201805460ff811615158452610100810461ffff1694840194909452630100000090930473ffffffffffffffffffffffffffffffffffffffff1690820152600182018054919291606084019190610b5690611d9e565b80601f0160208091040260200160405190810160405280929190818152602001828054610b8290611d9e565b8015610bcf5780601f10610ba457610100808354040283529160200191610bcf565b820191906000526020600020905b815481529060010190602001808311610bb257829003601f168201915b5050505050815260200160028201548152505081526020019060010190610ade565b5050505090506000815111610c32576040517f91c0aaa200000000000000000000000000000000000000000000000000000000815260040160405180910390fd5b60005b8151811015610ec5576000828281518110610c5257610c52611e89565b602002602001015190506000610c7334836020015161ffff166127106113a4565b90508015610eb057608082015115610ea25760808201516040517f4fe0eced00000000000000000000000000000000000000000000000000000000815260009173ffffffffffffffffffffffffffffffffffffffff7f00000000000000000000000000000000000000000000000000000000000000001691634fe0eced91610d019160040190815260200190565b60206040518083038186803b158015610d1957600080fd5b505afa158015610d2d573d6000803e3d6000fd5b505050506040513d601f19601f82011682018060405250810190610d5191906117f0565b905073ffffffffffffffffffffffffffffffffffffffff8116610da0576040517f4df1ff9800000000000000000000000000000000000000000000000000000000815260040160405180910390fd5b8073ffffffffffffffffffffffffffffffffffffffff166302c8986f838560800151600073ffffffffffffffffffffffffffffffffffffffff16876040015173ffffffffffffffffffffffffffffffffffffffff1614610e04578660400151610e06565b335b606088015188516040517fffffffff0000000000000000000000000000000000000000000000000000000060e088901b168152610e499493929190600401611cc6565b6020604051808303818588803b158015610e6257600080fd5b505af1158015610e76573d6000803e3d6000fd5b50505050506040513d601f19601f82011682018060405250810190610e9b9190611b18565b5050610eb0565b610eb08260400151826114af565b50508080610ebd90611df2565b915050610c35565b506040517f42842e0e0000000000000000000000000000000000000000000000000000000081523060048201523360248201526044810184905273ffffffffffffffffffffffffffffffffffffffff8516906342842e0e90606401600060405180830381600087803b158015610f3a57600080fd5b505af1158015610f4e573d6000803e3d6000fd5b5050505073ffffffffffffffffffffffffffffffffffffffff828116600090815260016020908152604080832093881683529281528282208683529052908120610f9791611692565b60408051308152346020820152849173ffffffffffffffffffffffffffffffffffffffff87169133917f10489d00e99dad847cfdaebcd4f071ab10fb364134b113d0c9cdfbfeda19b126910160405180910390a4505060016000555050565b60026000541415611063576040517f08c379a000000000000000000000000000000000000000000000000000000000815260206004820152601f60248201527f5265656e7472616e637947756172643a207265656e7472616e742063616c6c00604482015260640161027e565b6002600090815533815260016020908152604080832073ffffffffffffffffffffffffffffffffffffffff8616845282528083208484529091529020546110d6576040517f91a7df1a00000000000000000000000000000000000000000000000000000000815260040160405180910390fd5b6040517f081812fc00000000000000000000000000000000000000000000000000000000815260048101829052309073ffffffffffffffffffffffffffffffffffffffff84169063081812fc9060240160206040518083038186803b15801561113e57600080fd5b505afa158015611152573d6000803e3d6000fd5b505050506040513d601f19601f8201168201806040525081019061117691906117f0565b73ffffffffffffffffffffffffffffffffffffffff161415806112de57506040517f6352211e0000000000000000000000000000000000000000000000000000000081526004810182905273ffffffffffffffffffffffffffffffffffffffff83169063e985e9c5908290636352211e9060240160206040518083038186803b15801561120257600080fd5b505afa158015611216573d6000803e3d6000fd5b505050506040513d601f19601f8201168201806040525081019061123a91906117f0565b6040517fffffffff0000000000000000000000000000000000000000000000000000000060e084901b16815273ffffffffffffffffffffffffffffffffffffffff909116600482015230602482015260440160206040518083038186803b1580156112a457600080fd5b505afa1580156112b8573d6000803e3d6000fd5b505050506040513d601f19601f820116820180604052508101906112dc91906118f2565b155b15611315576040517f91a7df1a00000000000000000000000000000000000000000000000000000000815260040160405180910390fd5b33600090815260016020908152604080832073ffffffffffffffffffffffffffffffffffffffff861684528252808320848452909152812061135691611692565b604051819073ffffffffffffffffffffffffffffffffffffffff84169033907ff88ef681ad3373210a8bdebc583f3b9caaf4f5eebba4acad2e758334bf6486e690600090a450506001600055565b600080807fffffffffffffffffffffffffffffffffffffffffffffffffffffffffffffffff85870985870292508281108382030391505080600014156113fd578382816113f3576113f3611e5a565b04925050506114a8565b838110611440576040517f773cc18c000000000000000000000000000000000000000000000000000000008152600481018290526024810185905260440161027e565b600084868809851960019081018716968790049682860381900495909211909303600082900391909104909201919091029190911760038402600290811880860282030280860282030280860282030280860282030280860282030280860290910302029150505b9392505050565b80471015611519576040517f08c379a000000000000000000000000000000000000000000000000000000000815260206004820152601d60248201527f416464726573733a20696e73756666696369656e742062616c616e6365000000604482015260640161027e565b60008273ffffffffffffffffffffffffffffffffffffffff168260405160006040518083038185875af1925050503d8060008114611573576040519150601f19603f3d011682016040523d82523d6000602084013e611578565b606091505b5050905080611609576040517f08c379a000000000000000000000000000000000000000000000000000000000815260206004820152603a60248201527f416464726573733a20756e61626c6520746f2073656e642076616c75652c207260448201527f6563697069656e74206d61792068617665207265766572746564000000000000606482015260840161027e565b505050565b82805461161a90611d9e565b90600052602060002090601f01602090048101928261163c5760008555611682565b82601f1061165557805160ff1916838001178555611682565b82800160010185558215611682579182015b82811115611682578251825591602001919060010190611667565b5061168e9291506116b6565b5090565b50805460008255600302906000526020600020908101906116b391906116cb565b50565b5b8082111561168e57600081556001016116b7565b8082111561168e5780547fffffffffffffffffff000000000000000000000000000000000000000000000016815560006117086001830182611718565b50600060028201556003016116cb565b50805461172490611d9e565b6000825580601f10611734575050565b601f0160209004906000526020600020908101906116b391906116b6565b803561175d81611ee7565b919050565b600082601f83011261177357600080fd5b813567ffffffffffffffff81111561178d5761178d611eb8565b6117be60207fffffffffffffffffffffffffffffffffffffffffffffffffffffffffffffffe0601f84011601611d37565b8181528460208386010111156117d357600080fd5b816020850160208301376000918101602001919091529392505050565b60006020828403121561180257600080fd5b81516114a881611ee7565b60008060008060006080868803121561182557600080fd5b853561183081611ee7565b9450602086013561184081611ee7565b935060408601359250606086013567ffffffffffffffff8082111561186457600080fd5b818801915088601f83011261187857600080fd5b81358181111561188757600080fd5b89602082850101111561189957600080fd5b9699959850939650602001949392505050565b600080600080608085870312156118c257600080fd5b84356118cd81611ee7565b935060208501356118dd81611ee7565b93969395505050506040820135916060013590565b60006020828403121561190457600080fd5b81516114a881611f09565b6000806040838503121561192257600080fd5b823561192d81611ee7565b946020939093013593505050565b60008060006060848603121561195057600080fd5b833561195b81611ee7565b925060208401359150604084013561197281611ee7565b809150509250925092565b6000806000806080858703121561199357600080fd5b61199d8535611ee7565b84359350602085013592506040850135915067ffffffffffffffff80606087013511156119c957600080fd5b6060860135860187601f8201126119df57600080fd5b81813511156119f0576119f0611eb8565b611a006020823560051b01611d37565b8082358252602082019150602083018a6020853560051b8601011115611a2557600080fd5b60005b8435811015611b06578582351115611a3f57600080fd5b8135850160a07fffffffffffffffffffffffffffffffffffffffffffffffffffffffffffffffe0828f03011215611a7557600080fd5b611a7d611d0e565b611a8a6020830135611f09565b60208201358152604082013561ffff81168114611aa657600080fd5b6020820152611ab760608301611752565b60408201528760808301351115611acd57600080fd5b611ae08e60206080850135850101611762565b606082015260a09190910135608082015284526020938401939190910190600101611a28565b50508094505050505092959194509250565b600060208284031215611b2a57600080fd5b5051919050565b6000815180845260005b81811015611b5757602081850181015186830182015201611b3b565b81811115611b69576000602083870101525b50601f017fffffffffffffffffffffffffffffffffffffffffffffffffffffffffffffffe0169290920160200192915050565b60006040808301818452808651808352606092508286019150828160051b8701016020808a0160005b84811015611c5e577fffffffffffffffffffffffffffffffffffffffffffffffffffffffffffffffa08a8503018652815160a081511515865261ffff85830151168587015273ffffffffffffffffffffffffffffffffffffffff8a830151168a87015288820151818a880152611c3d82880182611b31565b60809384015197909301969096525095830195935090820190600101611bc5565b50509690960196909652509295945050505050565b851515815261ffff8516602082015273ffffffffffffffffffffffffffffffffffffffff8416604082015260a060608201526000611cb460a0830185611b31565b90508260808301529695505050505050565b84815273ffffffffffffffffffffffffffffffffffffffff84166020820152608060408201526000611cfb6080830185611b31565b9050821515606083015295945050505050565b60405160a0810167ffffffffffffffff81118282101715611d3157611d31611eb8565b60405290565b604051601f82017fffffffffffffffffffffffffffffffffffffffffffffffffffffffffffffffe016810167ffffffffffffffff81118282101715611d7e57611d7e611eb8565b604052919050565b60008219821115611d9957611d99611e2b565b500190565b600181811c90821680611db257607f821691505b60208210811415611dec577f4e487b7100000000000000000000000000000000000000000000000000000000600052602260045260246000fd5b50919050565b60007fffffffffffffffffffffffffffffffffffffffffffffffffffffffffffffffff821415611e2457611e24611e2b565b5060010190565b7f4e487b7100000000000000000000000000000000000000000000000000000000600052601160045260246000fd5b7f4e487b7100000000000000000000000000000000000000000000000000000000600052601260045260246000fd5b7f4e487b7100000000000000000000000000000000000000000000000000000000600052603260045260246000fd5b7f4e487b7100000000000000000000000000000000000000000000000000000000600052604160045260246000fd5b73ffffffffffffffffffffffffffffffffffffffff811681146116b357600080fd5b80151581146116b357600080fdfea2646970667358221220f06a869941df162a5c8f030625f9e6b550b5237622c08e8be4aabc51d38cea3164736f6c63430008060033",
  "devdoc": {
    "author": "@nnnnicholas & @me_jango",
    "details": "Compatible with ERC-721 NFTs only.",
    "events": {
      "Delisted(address,address,uint256)": {
        "params": {
          "_contract": "The NFT's contract address.",
          "_from": "The address that listed the NFT.",
          "_tokenId": "The NFT's tokenId."
        }
      },
      "Listed(address,address,uint256,(bool,uint16,address,string,uint256)[],uint256)": {
        "params": {
          "_contract": "The NFT's contract address.",
          "_from": "The address that listed the NFT.",
          "_tokenId": "The NFT's tokenId."
        }
      },
      "Purchased(address,address,address,uint256,uint256)": {
        "params": {
          "_contract": "The NFT's contract address.",
          "_from": "The address that listed the NFT.",
          "_to": "The address that purchased the NFT.",
          "_tokenId": "The NFT's tokenId."
        }
      }
    },
    "kind": "dev",
    "methods": {
      "constructor": {
        "details": "Frontends can filter listed NFTs for those relevant to a specific project, or listed by a particular address.",
        "params": {
          "_terminalDirectory": "A directory of a project's current Juicebox terminal to receive payments in."
        }
      },
      "list(address,uint256,uint256,(bool,uint16,address,string,uint256)[])": {
        "details": "Listing address must `approve` the NFTMKT contract address on the 721 contract before calling `list` on NFTMKT, so the NFTMKT can move purchased NFTs.`_receipients` are validated to sum to no more than 100%.",
        "params": {
          "_contract": "The contract that issued the listed NFT.",
          "_recipients": "An array of `SaleRecipient` that will receive project tokens issued in response to a sale.*",
          "_tokenId": "The tokenId of the listed NFT."
        }
      },
      "onERC721Received(address,address,uint256,bytes)": {
        "details": "Tells ERC-721 contracts that this contract can receive ERC-721s (supports IERC721Receiver)"
      },
      "purchase(address,uint256,address)": {
        "details": "If SalesRecipients points at a project, this function calls _terminal.pay(). If SaleRecipients points to an address, this function transfers ETH to that address directly. Similar logic to https://github.com/jbx-protocol/juicehouse/blob/540f3037689ae74f2f97d95f9f28d88f69afd4a3/packages/hardhat/contracts/TerminalV1.sol#L1015"
      }
    },
    "stateVariables": {
      "terminalDirectory": {
        "details": "The direct deposit terminals."
      }
    },
    "title": "NFTMKT",
    "version": 1
  },
  "userdoc": {
    "errors": {
      "BeneficiaryIsZero()": [
        {
          "notice": "Emitted when a projectId is not specified and the beneficiary is the zero address."
        }
      ],
      "NoRecipients()": [
        {
          "notice": "Emitted when there is not at least 1 recipient."
        }
      ],
      "PRBMath__MulDivOverflow(uint256,uint256)": [
        {
          "notice": "Emitted when the result overflows uint256."
        }
      ],
      "PercentExceeded()": [
        {
          "notice": "Emitted when the sum of percent values exceeds 10000."
        }
      ],
      "PercentNot100()": [
        {
          "notice": "Emitted when the sum of the sale recipients' distribution is not equal to 100%."
        }
      ],
      "RecipientPercentZero()": [
        {
          "notice": "Emitted when a recipient's percent is 0."
        }
      ],
      "TerminalNotFound()": [
        {
          "notice": "Emitted when the Terminal is the zero address."
        }
      ],
      "Unapproved()": [
        {
          "notice": "Emitted when an address is not approved to move this NFT."
        }
      ],
      "WrongPrice()": [
        {
          "notice": "Emitted when the amount of ETH sent does not match the price of the listed NFT."
        }
      ]
    },
    "events": {
      "Delisted(address,address,uint256)": {
        "notice": "Emitted when an NFT is delisted from NFTMKT."
      },
      "Listed(address,address,uint256,(bool,uint16,address,string,uint256)[],uint256)": {
        "notice": "Emitted when an NFT is listed on NFTMKT."
      },
      "Purchased(address,address,address,uint256,uint256)": {
        "notice": "Emitted when an NFT is purchased from NFTMKT."
      }
    },
    "kind": "user",
    "methods": {
      "constructor": {
        "notice": "Creates an instance of NFTMKT. Any address may permissionlesly list their NFTs on this NFTMKT instance."
      },
      "delist(address,uint256)": {
        "notice": "Cancels NFT listing on NFTMKT. Can only be called on an NFT by the address that listed it."
      },
      "list(address,uint256,uint256,(bool,uint16,address,string,uint256)[])": {
        "notice": "List NFT in the NFTMKT and define who will receive project tokens resulting from a sale."
      },
      "prices(address,uint256)": {
        "notice": "Stores each NFT's price IERC721 NFT contract address uint256 NFT tokenId uint256 NFT price in wei"
      },
      "purchase(address,uint256,address)": {
        "notice": "Routes funds from purchase to the preconfigured recipients."
      },
      "recipientsOf(address,address,uint256,uint256)": {
        "notice": "Stores benificiaries of sale revenues and tokens  address Address listing the NFT  IERC721 NFT contract address  uint256 NFT tokenId  SaleRecipient[] Array of split receipients."
      }
    },
    "notice": "An NFT marketplace built for Juicebox projects.",
    "version": 1
  },
  "storageLayout": {
    "storage": [
      {
        "astId": 578,
        "contract": "contracts/NFTMarket.sol:NFTMarket",
        "label": "_status",
        "offset": 0,
        "slot": "0",
        "type": "t_uint256"
      },
      {
        "astId": 1394,
        "contract": "contracts/NFTMarket.sol:NFTMarket",
        "label": "recipientsOf",
        "offset": 0,
        "slot": "1",
        "type": "t_mapping(t_address,t_mapping(t_contract(IERC721)723,t_mapping(t_uint256,t_array(t_struct(SaleRecipient)1349_storage)dyn_storage)))"
      },
      {
        "astId": 1402,
        "contract": "contracts/NFTMarket.sol:NFTMarket",
        "label": "prices",
        "offset": 0,
        "slot": "2",
        "type": "t_mapping(t_contract(IERC721)723,t_mapping(t_uint256,t_uint256))"
      }
    ],
    "types": {
      "t_address": {
        "encoding": "inplace",
        "label": "address",
        "numberOfBytes": "20"
      },
      "t_address_payable": {
        "encoding": "inplace",
        "label": "address payable",
        "numberOfBytes": "20"
      },
      "t_array(t_struct(SaleRecipient)1349_storage)dyn_storage": {
        "base": "t_struct(SaleRecipient)1349_storage",
        "encoding": "dynamic_array",
        "label": "struct SaleRecipient[]",
        "numberOfBytes": "32"
      },
      "t_bool": {
        "encoding": "inplace",
        "label": "bool",
        "numberOfBytes": "1"
      },
      "t_contract(IERC721)723": {
        "encoding": "inplace",
        "label": "contract IERC721",
        "numberOfBytes": "20"
      },
      "t_mapping(t_address,t_mapping(t_contract(IERC721)723,t_mapping(t_uint256,t_array(t_struct(SaleRecipient)1349_storage)dyn_storage)))": {
        "encoding": "mapping",
        "key": "t_address",
        "label": "mapping(address => mapping(contract IERC721 => mapping(uint256 => struct SaleRecipient[])))",
        "numberOfBytes": "32",
        "value": "t_mapping(t_contract(IERC721)723,t_mapping(t_uint256,t_array(t_struct(SaleRecipient)1349_storage)dyn_storage))"
      },
      "t_mapping(t_contract(IERC721)723,t_mapping(t_uint256,t_array(t_struct(SaleRecipient)1349_storage)dyn_storage))": {
        "encoding": "mapping",
        "key": "t_contract(IERC721)723",
        "label": "mapping(contract IERC721 => mapping(uint256 => struct SaleRecipient[]))",
        "numberOfBytes": "32",
        "value": "t_mapping(t_uint256,t_array(t_struct(SaleRecipient)1349_storage)dyn_storage)"
      },
      "t_mapping(t_contract(IERC721)723,t_mapping(t_uint256,t_uint256))": {
        "encoding": "mapping",
        "key": "t_contract(IERC721)723",
        "label": "mapping(contract IERC721 => mapping(uint256 => uint256))",
        "numberOfBytes": "32",
        "value": "t_mapping(t_uint256,t_uint256)"
      },
      "t_mapping(t_uint256,t_array(t_struct(SaleRecipient)1349_storage)dyn_storage)": {
        "encoding": "mapping",
        "key": "t_uint256",
        "label": "mapping(uint256 => struct SaleRecipient[])",
        "numberOfBytes": "32",
        "value": "t_array(t_struct(SaleRecipient)1349_storage)dyn_storage"
      },
      "t_mapping(t_uint256,t_uint256)": {
        "encoding": "mapping",
        "key": "t_uint256",
        "label": "mapping(uint256 => uint256)",
        "numberOfBytes": "32",
        "value": "t_uint256"
      },
      "t_string_storage": {
        "encoding": "bytes",
        "label": "string",
        "numberOfBytes": "32"
      },
      "t_struct(SaleRecipient)1349_storage": {
        "encoding": "inplace",
        "label": "struct SaleRecipient",
        "members": [
          {
            "astId": 1340,
            "contract": "contracts/NFTMarket.sol:NFTMarket",
            "label": "preferUnstaked",
            "offset": 0,
            "slot": "0",
            "type": "t_bool"
          },
          {
            "astId": 1342,
            "contract": "contracts/NFTMarket.sol:NFTMarket",
            "label": "percent",
            "offset": 1,
            "slot": "0",
            "type": "t_uint16"
          },
          {
            "astId": 1344,
            "contract": "contracts/NFTMarket.sol:NFTMarket",
            "label": "beneficiary",
            "offset": 3,
            "slot": "0",
            "type": "t_address_payable"
          },
          {
            "astId": 1346,
            "contract": "contracts/NFTMarket.sol:NFTMarket",
            "label": "memo",
            "offset": 0,
            "slot": "1",
            "type": "t_string_storage"
          },
          {
            "astId": 1348,
            "contract": "contracts/NFTMarket.sol:NFTMarket",
            "label": "projectId",
            "offset": 0,
            "slot": "2",
            "type": "t_uint256"
          }
        ],
        "numberOfBytes": "96"
      },
      "t_uint16": {
        "encoding": "inplace",
        "label": "uint16",
        "numberOfBytes": "2"
      },
      "t_uint256": {
        "encoding": "inplace",
        "label": "uint256",
        "numberOfBytes": "32"
      }
    }
  }
}